{
  "_format": "hh-sol-artifact-1",
  "contractName": "SimpleStorage",
  "sourceName": "contracts/SimpleStorage.sol",
  "abi": [
    {
      "inputs": [
        {
          "internalType": "string",
          "name": "_name",
          "type": "string"
        },
        {
          "internalType": "uint256",
          "name": "_favoriteNumber",
          "type": "uint256"
        }
      ],
      "name": "addPerson",
      "outputs": [],
      "stateMutability": "nonpayable",
      "type": "function"
    },
    {
      "inputs": [
        {
          "internalType": "string",
          "name": "_name",
          "type": "string"
        }
      ],
      "name": "getMappingValue",
      "outputs": [
        {
          "internalType": "uint256",
          "name": "_value",
          "type": "uint256"
        }
      ],
      "stateMutability": "view",
      "type": "function"
    },
    {
      "inputs": [],
      "name": "getPeoples",
      "outputs": [
        {
          "components": [
            {
              "internalType": "uint256",
              "name": "favoriteNumber",
              "type": "uint256"
            },
            {
              "internalType": "string",
              "name": "name",
              "type": "string"
            }
          ],
          "internalType": "struct SimpleStorage.People[]",
          "name": "",
          "type": "tuple[]"
        }
      ],
      "stateMutability": "view",
      "type": "function"
    },
    {
      "inputs": [
        {
          "internalType": "string",
          "name": "",
          "type": "string"
        }
      ],
      "name": "nameToFavoriteNumber",
      "outputs": [
        {
          "internalType": "uint256",
          "name": "",
          "type": "uint256"
        }
      ],
      "stateMutability": "view",
      "type": "function"
    },
    {
      "inputs": [
        {
          "internalType": "uint256",
          "name": "",
          "type": "uint256"
        }
      ],
      "name": "people",
      "outputs": [
        {
          "internalType": "uint256",
          "name": "favoriteNumber",
          "type": "uint256"
        },
        {
          "internalType": "string",
          "name": "name",
          "type": "string"
        }
      ],
      "stateMutability": "view",
      "type": "function"
    },
    {
      "inputs": [],
      "name": "personLstLen",
      "outputs": [
        {
          "internalType": "uint256",
          "name": "",
          "type": "uint256"
        }
      ],
      "stateMutability": "view",
      "type": "function"
    },
    {
      "inputs": [],
      "name": "retrieve",
      "outputs": [
        {
          "internalType": "uint256",
          "name": "",
          "type": "uint256"
        }
      ],
      "stateMutability": "view",
      "type": "function"
    },
    {
      "inputs": [
        {
          "internalType": "uint256",
          "name": "_favoriteNumber",
          "type": "uint256"
        }
      ],
      "name": "store",
      "outputs": [],
      "stateMutability": "nonpayable",
      "type": "function"
    }
  ],
  "bytecode": "0x608060405234801561001057600080fd5b50610c82806100206000396000f3fe608060405234801561001057600080fd5b50600436106100885760003560e01c80639e7a13ad1161005b5780639e7a13ad146101135780639f8ba7cf14610144578063cc91533914610174578063dd88bb7b1461019257610088565b80632e64cec11461008d5780636057361d146100ab5780636f760f41146100c75780638bab8dd5146100e3575b600080fd5b6100956101b0565b6040516100a2919061047f565b60405180910390f35b6100c560048036038101906100c091906104da565b6101b9565b005b6100e160048036038101906100dc919061064d565b6101c3565b005b6100fd60048036038101906100f891906106a9565b61024c565b60405161010a919061047f565b60405180910390f35b61012d600480360381019061012891906104da565b61027a565b60405161013b929190610771565b60405180910390f35b61015e600480360381019061015991906106a9565b610336565b60405161016b919061047f565b60405180910390f35b61017c61035e565b60405161018991906108f9565b60405180910390f35b61019a610459565b6040516101a7919061047f565b60405180910390f35b60008054905090565b8060008190555050565b600160405180604001604052808381526020018481525090806001815401808255809150506001900390600052602060002090600202016000909190919091506000820151816000015560208201518160010190816102229190610b27565b505050806002836040516102369190610c35565b9081526020016040518091039020819055505050565b6002818051602081018201805184825260208301602085012081835280955050505050506000915090505481565b6001818154811061028a57600080fd5b90600052602060002090600202016000915090508060000154908060010180546102b39061094a565b80601f01602080910402602001604051908101604052809291908181526020018280546102df9061094a565b801561032c5780601f106103015761010080835404028352916020019161032c565b820191906000526020600020905b81548152906001019060200180831161030f57829003601f168201915b5050505050905082565b60006002826040516103489190610c35565b9081526020016040518091039020549050919050565b60606001805480602002602001604051908101604052809291908181526020016000905b828210156104505783829060005260206000209060020201604051806040016040529081600082015481526020016001820180546103bf9061094a565b80601f01602080910402602001604051908101604052809291908181526020018280546103eb9061094a565b80156104385780601f1061040d57610100808354040283529160200191610438565b820191906000526020600020905b81548152906001019060200180831161041b57829003601f168201915b50505050508152505081526020019060010190610382565b50505050905090565b6000600180549050905090565b6000819050919050565b61047981610466565b82525050565b60006020820190506104946000830184610470565b92915050565b6000604051905090565b600080fd5b600080fd5b6104b781610466565b81146104c257600080fd5b50565b6000813590506104d4816104ae565b92915050565b6000602082840312156104f0576104ef6104a4565b5b60006104fe848285016104c5565b91505092915050565b600080fd5b600080fd5b6000601f19601f8301169050919050565b7f4e487b7100000000000000000000000000000000000000000000000000000000600052604160045260246000fd5b61055a82610511565b810181811067ffffffffffffffff8211171561057957610578610522565b5b80604052505050565b600061058c61049a565b90506105988282610551565b919050565b600067ffffffffffffffff8211156105b8576105b7610522565b5b6105c182610511565b9050602081019050919050565b82818337600083830152505050565b60006105f06105eb8461059d565b610582565b90508281526020810184848401111561060c5761060b61050c565b5b6106178482856105ce565b509392505050565b600082601f83011261063457610633610507565b5b81356106448482602086016105dd565b91505092915050565b60008060408385031215610664576106636104a4565b5b600083013567ffffffffffffffff811115610682576106816104a9565b5b61068e8582860161061f565b925050602061069f858286016104c5565b9150509250929050565b6000602082840312156106bf576106be6104a4565b5b600082013567ffffffffffffffff8111156106dd576106dc6104a9565b5b6106e98482850161061f565b91505092915050565b600081519050919050565b600082825260208201905092915050565b60005b8381101561072c578082015181840152602081019050610711565b60008484015250505050565b6000610743826106f2565b61074d81856106fd565b935061075d81856020860161070e565b61076681610511565b840191505092915050565b60006040820190506107866000830185610470565b81810360208301526107988184610738565b90509392505050565b600081519050919050565b600082825260208201905092915050565b6000819050602082019050919050565b6107d681610466565b82525050565b600082825260208201905092915050565b60006107f8826106f2565b61080281856107dc565b935061081281856020860161070e565b61081b81610511565b840191505092915050565b600060408301600083015161083e60008601826107cd565b506020830151848203602086015261085682826107ed565b9150508091505092915050565b600061086f8383610826565b905092915050565b6000602082019050919050565b600061088f826107a1565b61089981856107ac565b9350836020820285016108ab856107bd565b8060005b858110156108e757848403895281516108c88582610863565b94506108d383610877565b925060208a019950506001810190506108af565b50829750879550505050505092915050565b600060208201905081810360008301526109138184610884565b905092915050565b7f4e487b7100000000000000000000000000000000000000000000000000000000600052602260045260246000fd5b6000600282049050600182168061096257607f821691505b6020821081036109755761097461091b565b5b50919050565b60008190508160005260206000209050919050565b60006020601f8301049050919050565b600082821b905092915050565b6000600883026109dd7fffffffffffffffffffffffffffffffffffffffffffffffffffffffffffffffff826109a0565b6109e786836109a0565b95508019841693508086168417925050509392505050565b6000819050919050565b6000610a24610a1f610a1a84610466565b6109ff565b610466565b9050919050565b6000819050919050565b610a3e83610a09565b610a52610a4a82610a2b565b8484546109ad565b825550505050565b600090565b610a67610a5a565b610a72818484610a35565b505050565b5b81811015610a9657610a8b600082610a5f565b600181019050610a78565b5050565b601f821115610adb57610aac8161097b565b610ab584610990565b81016020851015610ac4578190505b610ad8610ad085610990565b830182610a77565b50505b505050565b600082821c905092915050565b6000610afe60001984600802610ae0565b1980831691505092915050565b6000610b178383610aed565b9150826002028217905092915050565b610b30826106f2565b67ffffffffffffffff811115610b4957610b48610522565b5b610b53825461094a565b610b5e828285610a9a565b600060209050601f831160018114610b915760008415610b7f578287015190505b610b898582610b0b565b865550610bf1565b601f198416610b9f8661097b565b60005b82811015610bc757848901518255600182019150602085019450602081019050610ba2565b86831015610be45784890151610be0601f891682610aed565b8355505b6001600288020188555050505b505050505050565b600081905092915050565b6000610c0f826106f2565b610c198185610bf9565b9350610c2981856020860161070e565b80840191505092915050565b6000610c418284610c04565b91508190509291505056fea26469706673582212207c205abe5b4a600fad7d9171062ee7d5cb4c8bfe171fb65396130d6f1c2fbdf164736f6c63430008120033",
  "linkReferences": {},
  "deployedLinkReferences": {}
}